:1000000012C02CC02BC02AC029C028C027C026C0BF
:1000100025C024C023C023C04BC020C01FC01EC0A9
:100020001DC01CC01BC011241FBECFE5D4E0DEBF25
:10003000CDBF12E0A0E6B0E0E8EEF2E002C005902D
:100040000D92AA30B107D9F713E0AAE0B2E001C0DF
:100050001D92AF32B107E1F7A2D044C1D1CF1F92B8
:100060000F920FB60F9211242F938F939F93EF93BC
:10007000FF939BB12CB1E0912C03EF5F80912D0396
:10008000E81711F482E008C0892F8871E0932C03EF
:10009000F0E0E65DFD4F208380932E03FF91EF910A
:1000A0009F918F912F910F900FBE0F901F901895D9
:1000B0001F920F920FB60F9211248F939F93EF937D
:1000C000FF9390912A0380912B03981761F0E091A0
:1000D0002B03EF5FEF71E0932B03F0E0E65FFD4F42
:1000E00080818CB901C05598FF91EF919F918F91BC
:1000F0000F900FBE0F901F90189510922C03109226
:100100002D0308959C0110922A0310922B03109244
:100110002C0310922D0397FF03C082E08BB93F7729
:1001200030BD29B988E98AB986E880BD08959091E3
:100130002C0380912D03981719F420E031E011C0B1
:10014000E0912D03EF5FE0932D03F0E0E65DFD4FBE
:10015000308120912E03922F80E0AC01430F511D7E
:100160009A01C90108955D9BFECF8CB908955D9BEE
:10017000FECF8CB90895FC0104C05D9BFECF319683
:100180008CB980818823C9F7089503C05D9BFECF99
:100190002CB9FC01019624912223C1F708950F93F5
:1001A0001F93CF93DF9383E390E0ACDF789480E6F6
:1001B00090E0E1DFA49AA59AC0E0D0E008EC10E05E
:1001C00049C02196C730D10509F044C080E890E0CD
:1001D000D2DF83E890E0CFDF8BEB90E0CCDF80E8EC
:1001E00090E0C9DF80E890E0C6DF87EE90E0C3DFF3
:1001F00080E890E0C0DF86EF90E0BDDF80E890E02F
:10020000BADF8BE091E0B7DF80E890E0B4DF81E215
:1002100091E0B1DF80E890E0AEDF86E391E0ABDF14
:1002200080E890E0A8DF8CE491E0A5DF80E890E032
:10023000A2DF84E691E09FDF80E890E09CDF80E829
:1002400090E099DF8BEB90E096DF80E890E093DF21
:10025000C0E0D0E06CDF873739F4AC9A8DE791E0ED
:100260008ADF83E991E02EC0833739F4AC988DE7BB
:1002700091E081DF87EB91E025C0813639F4AD9ABA
:100280008DE791E078DF86EC91E01CC0843639F48C
:10029000AD988DE791E06FDF84ED91E013C08A3770
:1002A00041F4AC9AAC9A8DE791E065DF83EE91E082
:1002B00009C0883771F4AC98AD988DE791E05BDFA9
:1002C00086EF91E058DF81EA91E055DF80E890E029
:1002D00052DF88E893E1F8013197F1F7019709F4CB
:0802E00070CFF9CFF894FFCFB5
:1002E800484F4D45204150504C49414E43452043CD
:1002F8004F4E54524F4C2053595354454D0A0D00FC
:100308000A0D0020202020202020202020484F4DAA
:1003180045204150504C49414E434520434F4E548F
:10032800524F4C2053595354454D20202020202013
:1003380020202020202020200A0D002A2A2A2A2ACC
:100348002A2A2A2A2A2A2A2A2A2A2A2A2A2A2A2A05
:100358002A2A2A2A2A2A2A2A2A2A2A2A2A2A2A2AF5
:100368002A2A2A2A2A2A0053595354454D20434FF2
:100378004D4D414E440070726573732077203D20C7
:1003880053595354454D31204F4E00707265737365
:100398002073203D2053595354454D31204F464634
:1003A8000070726573732061203D20535953544582
:1003B8004D32204F4E0070726573732064203D20CB
:1003C80053595354454D32204F4646007072657359
:1003D80073207A203D20414C4C2053595354454DAD
:1003E800204F4E0070726573732078203D20414C79
:1003F8004C2053595354454D204F4646002A2A2A2B
:100408002A2A2A2A2A2A2A2A2D2D2D2D2D2D2D2D2C
:100418002D200053594554454D31204953204F4E06
:1004280000202D2D2D2D2D2D2D2D2D2A2A2A2A2A3D
:100438002A2A2A2A2A2A0053595354454D31204939
:1004480053204F46460053594554454D3220495391
:10045800204F4E0053595354454D32204953204F95
:10046800464600414C4C2053595354454D53204166
:100478005245204F4E00414C4C2053595354454D42
:0A0488005320415245204F46460024
:00000001FF
